:020000040000fa
:080000000002040000000000f2
:020000040000fa
:04000800bc03000035
:020000040000fa
:04000c00bc03000031
:020000040000fa
:04001000bc0300002d
:020000040000fa
:04001400bc03000029
:020000040000fa
:04001800bc03000025
:020000040000fa
:04001c00bc03000021
:020000040000fa
:04002000bc0300001d
:020000040000fa
:04002400bc03000019
:020000040000fa
:04002800bc03000015
:020000040000fa
:04002c00bc03000011
:020000040000fa
:04003000bc0300000d
:020000040000fa
:04003400c8020000fe
:020000040000fa
:04003800bc03000005
:020000040000fa
:04003c00bc03000001
:020000040000fa
:04004000bc030000fd
:020000040000fa
:040044002003000095
:020000040000fa
:04004800bc030000f5
:020000040000fa
:04004c00bc030000f1
:020000040000fa
:04005000bc030000ed
:020000040000fa
:04005400bc030000e9
:020000040000fa
:04005800bc030000e5
:020000040000fa
:04005c00e4020000ba
:020000040000fa
:04006000bc030000dd
:020000040000fa
:04006400bc030000d9
:020000040000fa
:04006800bc030000d5
:020000040000fa
:04006c00bc030000d1
:020000040000fa
:04007000bc030000cd
:020000040000fa
:04007400bc030000c9
:020000040000fa
:04007800bc030000c5
:020000040000fa
:04007c00bc030000c1
:020000040000fa
:04008000bc030000bd
:020000040000fa
:04008400bc030000b9
:020000040000fa
:04008800bc030000b5
:020000040000fa
:04008c00bc030000b1
:020000040000fa
:04009000bc030000ad
:020000040000fa
:04009400bc030000a9
:020000040000fa
:04009800bc030000a5
:020000040000fa
:04009c00bc030000a1
:020000040000fa
:0400a000bc0300009d
:020000040000fa
:0400a400bc03000099
:020000040000fa
:0400a800bc03000095
:020000040000fa
:0400ac00bc03000091
:020000040000fa
:0400b000bc0300008d
:020000040000fa
:0400b400bc03000089
:020000040000fa
:0400b800bc03000085
:020000040000fa
:0400bc00bc03000081
:020000040000fa
:0400c000bc0300007d
:020000040000fa
:0400c400bc03000079
:020000040000fa
:0400c800bc03000075
:020000040000fa
:0400cc00bc03000071
:020000040000fa
:0400d000bc0300006d
:020000040000fa
:0400d400bc03000069
:020000040000fa
:0400d800bc03000065
:020000040000fa
:0400dc00bc03000061
:020000040000fa
:0400e000bc0300005d
:020000040000fa
:0400e400bc03000059
:020000040000fa
:0400e800bc03000055
:020000040000fa
:0400ec00bc03000051
:020000040000fa
:0400f000bc0300004d
:020000040000fa
:0400f400bc03000049
:020000040000fa
:0400f800bc03000045
:020000040000fa
:0400fc00bc03000041
:020000040000fa
:04010000bc0300003c
:020000040000fa
:04010400bc03000038
:020000040000fa
:04010800bc03000034
:020000040000fa
:04010c00bc03000030
:020000040000fa
:04011000bc0300002c
:020000040000fa
:04011400bc03000028
:020000040000fa
:04011800bc03000024
:020000040000fa
:04011c00bc03000020
:020000040000fa
:04012000bc0300001c
:020000040000fa
:04012400bc03000018
:020000040000fa
:04012800bc03000014
:020000040000fa
:04012c00bc03000010
:020000040000fa
:04013000bc0300000c
:020000040000fa
:04013400bc03000008
:020000040000fa
:04013800bc03000004
:020000040000fa
:04013c00bc03000000
:020000040000fa
:04014000bc030000fc
:020000040000fa
:04014400bc030000f8
:020000040000fa
:04014800bc030000f4
:020000040000fa
:04014c00bc030000f0
:020000040000fa
:04015000bc030000ec
:020000040000fa
:04020800bc03000033
:020000040000fa
:04020c00bc0300002f
:020000040000fa
:04021000bc0300002b
:020000040000fa
:04021400bc03000027
:020000040000fa
:04021800bc03000023
:020000040000fa
:04021c00bc0300001f
:020000040000fa
:04022000bc0300001b
:020000040000fa
:04022400bc03000017
:020000040000fa
:04022800bc03000013
:020000040000fa
:04022c00bc0300000f
:020000040000fa
:04023000bc0300000b
:020000040000fa
:04023400c8020000fc
:020000040000fa
:04023800bc03000003
:020000040000fa
:04023c00bc030000ff
:020000040000fa
:04024000bc030000fb
:020000040000fa
:040244002003000093
:020000040000fa
:04024800bc030000f3
:020000040000fa
:04024c00bc030000ef
:020000040000fa
:04025000bc030000eb
:020000040000fa
:04025400bc030000e7
:020000040000fa
:04025800bc030000e3
:020000040000fa
:04025c00e4020000b8
:020000040000fa
:04026000bc030000db
:020000040000fa
:04026400bc030000d7
:020000040000fa
:04026800bc030000d3
:020000040000fa
:04026c00bc030000cf
:020000040000fa
:04027000bc030000cb
:020000040000fa
:04027400bc030000c7
:020000040000fa
:04027800bc030000c3
:020000040000fa
:04027c00bc030000bf
:020000040000fa
:04028000bc030000bb
:020000040000fa
:04028400bc030000b7
:020000040000fa
:04028800bc030000b3
:020000040000fa
:04028c00bc030000af
:020000040000fa
:04029000bc030000ab
:020000040000fa
:04029400bc030000a7
:020000040000fa
:04029800bc030000a3
:020000040000fa
:04029c00bc0300009f
:020000040000fa
:0402a000bc0300009b
:020000040000fa
:0402a400bc03000097
:020000040000fa
:0402a800bc03000093
:020000040000fa
:0402ac00bc0300008f
:020000040000fa
:0402b000bc0300008b
:020000040000fa
:0402b400bc03000087
:020000040000fa
:0402b800bc03000083
:020000040000fa
:0402bc00bc0300007f
:020000040000fa
:0402c000bc0300007b
:020000040000fa
:0402c400bc03000077
:020000040000fa
:0402c800bc03000073
:020000040000fa
:0402cc00bc0300006f
:020000040000fa
:0402d000bc0300006b
:020000040000fa
:0402d400bc03000067
:020000040000fa
:0402d800bc03000063
:020000040000fa
:0402dc00bc0300005f
:020000040000fa
:0402e000bc0300005b
:020000040000fa
:0402e400bc03000057
:020000040000fa
:0402e800bc03000053
:020000040000fa
:0402ec00bc0300004f
:020000040000fa
:0402f000bc0300004b
:020000040000fa
:0402f400bc03000047
:020000040000fa
:0402f800bc03000043
:020000040000fa
:0402fc00bc0300003f
:020000040000fa
:04030000bc0300003a
:020000040000fa
:04030400bc03000036
:020000040000fa
:04030800bc03000032
:020000040000fa
:04030c00bc0300002e
:020000040000fa
:04031000bc0300002a
:020000040000fa
:04031400bc03000026
:020000040000fa
:04031800bc03000022
:020000040000fa
:04031c00bc0300001e
:020000040000fa
:04032000bc0300001a
:020000040000fa
:04032400bc03000016
:020000040000fa
:04032800bc03000012
:020000040000fa
:04032c00bc0300000e
:020000040000fa
:04033000bc0300000a
:020000040000fa
:04033400bc03000006
:020000040000fa
:04033800bc03000002
:020000040000fa
:04033c00bc030000fe
:020000040000fa
:04034000bc030000fa
:020000040000fa
:04034400bc030000f6
:020000040000fa
:04034800bc030000f2
:020000040000fa
:04034c00bc030000ee
:020000040000fa
:04035000bc030000ea
:020000040000fa
:100400006f8720000eff20000e0188000000000012
:10041000000020000000e000020032000001200087
:100420002002880014000700d50007000000e0004b
:1004300003003a00a08320000100200002003700e2
:100440000000200001002000810f70000100320038
:1004500014000700000020000000e000020032004d
:10046000000002000000000056080200000000002a
:100470000040da000000fe004440a9000000200017
:100480000000e0000300320000002000a00188000e
:100490004440a800000006008a1f78008b1f7800e7
:1004a0000000060091018800800478000000eb0045
:1004b0001a003700e284440032a0b4009905ba0063
:1004c000e284440032a0b4009906ba00e2844400f9
:1004d00032a0b4000006eb00476fde00fd07b2005b
:1004e000636ce10003003a00ebff07000000eb0043
:1004f0000a003700606ce10004003a00005deb0088
:100500008b05e900fdff3e00040037006168e10053
:10051000010032000086eb000b00070019c7ba008b
:100520001905ba000e04e00003003a000a00e000da
:10053000e0ff3a0000000600fe07b2009e018800be
:100540008a047800f5ff3700395dba008b05e900b1
:100550000c003200295dba008b05e900080032006a
:100560000c00e00003003a00e284440032a0b40032
:10057000f5ff370019ddba008b05e900faff3a00f4
:100580008904e800e184440032a0b40000000600c1
:10059000809fbe000000fa008460a90060438000d4
:1005a0000000e80060438800614380007002200082
:1005b000808f5000010036006c28ef000080fa00a8
:1005c0004f00be0000400600809fbe000000fa0001
:1005d00085a0a90020438000e10f500003003a00ed
:1005e00000188000304388000f003700204380004f
:1005f000e20f500007003a0001188000b0aa2a005c
:100600000008b8000100d10000004000404388000d
:100610000500370020438000e30f500002003a003d
:100620000018800050438800001980000010a000ce
:10063000001988000080fa004f00be00004006004c
:10064000809fbe00821f78000200fa0084e0a900ab
:100650000040eb00004f7800400037001e80fb0098
:1006600080004000008020000080400010007800e2
:100670000000e000380032001e80fb0080004000d7
:100680000084200000804000900078001e80fb0065
:1006900000014000008220000000410010007800ae
:1006a000808f5000080031001e80fb0011002000e8
:1006b0000008dd0080007800501680000100700006
:1006c00050168800080037001e80fb001100200033
:1006d0000008dd000080ea008000780050168000ed
:1006e00000806000501688001e80fb000001400062
:1006f0000184200081004100910078008100e80021
:100700000001400000842000000041000108780042
:100710001e80fb008000400000842000008040001c
:10072000900078001e80fb00000140000080200047
:100730000000410010007800808f50000600390052
:100740001e80fb00800040000084200000804000ec
:100750008000eb00010878001e4fe8001e40780082
:10076000ef4f5000bdff36000080fa004f017800c7
:100770004f00be00004006000040da000000fe000e
:10078000000005006022b800060220000000d00032
:100790008180d2000482d2008582d2000000a000b5
:1007a0000202520083825a0003003100020242001a
:1007b00083824a000000a1000603e900f3ff3a002b
:0407c000000006002f
:020000040000fa
:1007c4000000fa000080eb006019880060198000c6
:1007d4000000a10060198800401680000060a1009c
:1007e400401688004016800000c0a1004016880012
:1007f400401680000090a10040168800401680003a
:1008040000a0a100401688004016800000b0a1009e
:1008140040168800001680000030a00000168800f2
:10082400001680000040a100001688001016800009
:100834000040a100101688005116800000e020003e
:100844000100700050168800001680000000a0000f
:100854000016880041168000f0ff2100008060002f
:100864004016880051168000f0ff210000806000cf
:10087400501688000000eb0082010700803e200033
:100884003801070000042000920107000000210045
:1008940090010700810c200060c0b300aa0107008a
:1008a400810c2000c0c0b300a7010700b1002000e4
:1008b40060c0b300b4010700f1002000c0c0b30061
:1008c400b101070010002000a04388007028ef0049
:1008d4000080fa00000006000200fa000000eb00ad
:1008e400000f7800a0438000e30f5000370032006f
:1008f400e30f500005003e00e10f500008003200f5
:10090400e20f50001b00320071003700e50f500069
:1009140053003200e50f5000470039006c003700e7
:10092400101680004300de00610f60007028ef00a5
:10093400101680000040a000101688001e007800e9
:10094400e10f500007003a007028ef0010168000f5
:100954000040a1001016880020002000a043880059
:10096400fc000700b100200060c0b300860107004e
:1009740057003700401680000060a0004016880031
:100984004016800000c0a00040168800804380000c
:100994000000e00003003a004f0007008043880095
:1009a4004b00370030002000a0438800e900070016
:1009b400401680000060a1004016880040168000a8
:1009c40000c0a10040168800410037008043800029
:1009d400e30f500004003a00f1002000c0c0b3004f
:1009e400690107000d00370080438000e20f5000ca
:1009f40004003a0031012000c0c0b30062010700c6
:100a04000600370080438000e10f500003003a00e5
:100a1400b1002000c0c0b3005b010700c90007009b
:100a2400f40f50002500360040002000a043880049
:100a3400c8000700260037004101200060c0b30051
:100a440051010700bf000700f40f50001d003600dd
:100a540050002000a0438800be0007001c0037009f
:100a6400b100200060c0b30047010700b5000700d3
:100a7400f40f50001500360010002000a043880039
:100a8400b400070050168000904388009043800013
:100a940000d0a100904388009043800000e0a100b2
:100aa400904388009043800000f0a10090438800a8
:100ab40090438000501688000500370000000000b5
:100ac40003003700000000000100370000000000b0
:100ad4000080fa00000006000800fa000000eb00a5
:100ae400000f7800104380000000e00004003a008a
:100af4006c28ef00104380000000e80010438800d9
:100b040060438000e90f500013003e0010002000f5
:100b140020438800501680007043880040168000ef
:100b24000090a100401688004016800000a0a0009c
:100b3400401688004016800000b0a00040168800cf
:100b4400704380000090a1007043880070438000cf
:100b5400501688007800370060438000f30f50007f
:100b640013003e002000200020438800401680002f
:100b74000090a000401688004016800000a0a1004c
:100b8400401688004016800000b0a000401688007f
:100b940050168000704388007043800000a0a100bc
:100ba400704388007043800050168800620037004c
:100bb40060438000fd0f500013003e003000200011
:100bc40020438800401680000090a0004016880052
:100bd4004016800000a0a000401688004016800047
:100be40000b0a100401688005016800070438800b1
:100bf4007043800000b0a1007043880070438000ff
:100c0400501688004c0037006428ef003143800000
:100c14001107980041438000210798005143800048
:100c2400310798005016800070438800714380009b
:100c340000e0200001007000704388003143800010
:100c440040438000808f5000100039003143800001
:100c540050438000808f50000c00390070438000a6
:100c640000d0a100704388007043800000e0a00021
:100c7400704388007043800000f0a1007043880036
:100c84001000200000438800270037004143800003
:100c940030438000808f50001000390041438000b1
:100ca40050438000808f50000c0039007043800056
:100cb40000d0a100704388007043800000e0a100d0
:100cc400704388007043800000f0a00070438800e7
:100cd40020002000004388001300370051438000a7
:100ce40030438000808f50000f0039005143800052
:100cf40040438000808f50000b0039007043800017
:100d040000d0a000704388007043800000e0a10080
:100d1400704388007043800000f0a1007043880095
:100d24003000200000438800704380005016880083
:100d340001438000010f78001e0078000080fa0053
:100d4400000006000000fa00604380000080fa0002
:100d5400000006000000fa006c28ef000080fa0092
:100d6400000006000600fa0020079800ae0090007c
:100d7400b0082100808f50003f003e002e009000fc
:100d8400f00f500005003e000000eb00000f78005b
:100d9400100020001007980016003700ae009000e5
:100da40040082000808f500005003e001000200005
:100db400000f780080002000100798000d00370015
:100dc400ae00900020422000808f500005003e00bd
:100dd40020002000000f7800000420001007980075
:100de4000400370030002000000f780000102000bd
:100df400100798001e0078004400dd0020088800d9
:100e04002e0090008000eb0092f720000289b900c8
:100e1400020178006002b9008401780003014100f6
:100e240093f720000300b80001014100820078001c
:100e34001e0190008001eb0051fe070000007800c5
:100e4400100888000021ef008460a9009460a800c5
:100e540021058000f0ff280080806000000025004c
:100e640001007000200588002008800000f0a00028
:100e74002008880001003700000000000080fa000c
:100e8400000006000200fa00000f78005010200055
:100e94002019880085a0a90095a0a800510580000c
:100ea400f0f82f00008060000060a000500588006a
:100eb400000e2800001988009e007800411988005f
:100ec400001980000010a000001988000080fa00ba
:100ed400000006000200fa00000f78009e0078006f
:100ee4006f806000c200dd006019800001007000a6
:100ef400601988009e80ea0040168000008060002f
:100f0400401688001021ef0090f720006008880048
:100f14000621ef0084e0a90094e0a80031058000d8
:100f2400f0ff2800808060000000250001007000b0
:100f3400300588008008800000f0a0008008880048
:100f44000080fa00000006000400fa00004f780058
:100f5400110798001e407800ef4f500007003e0034
:100f64001e80fb00800040000080200000804000c4
:100f74009e00900001087800010037000000000086
:100f84000080fa00000006000400fa00004f780018
:100f9400110798001e407800ef4f500007003e00f4
:100fa4001e80fb0080004000008220000080400082
:100fb4009e00900001087800010037000000000046
:100fc4000080fa00000006000000fa00213a8000c8
:100fd40000fe2f0000806000203a8800900220006c
:100fe400303a8800213a8000f0f32f00008060003e
:100ff400203a88001200200080072000a109200068
:10100400337420008049780081497800824978004f
:10101400103a8000000178000200a0006004200063
:1010240071052000237420008049780081497800ec
:101034008249780000000000113a80000000270077
:101044008080600000002100808f5000faff3a0089
:1010540000000000113a80000002200000806000bf
:101064000000e000fbff32000080fa0000000600f0
:020000040000fa
:1010740060080000100000000000000000080000ec
:10108400600000000000000074080000020000007e
:1010940002000000010000007008000004000000cd
:0810a400000000000000000044
:020000040000fa
:1010ac000000fa00c6ff0700c3fd070008fe07009a
:0410bc00feff3700fc
:020000040000fa
:0200000401f009
:04000000ffffff00ff
:020000040000fa
:0200000401f009
:04000800ffffff00f7
:020000040000fa
:0200000401f009
:04000c0000000000f0
:020000040000fa
:0200000401f009
:0400100043000000a9
:020000040000fa
:0200000401f009
:040014005f00000089
:020000040000fa
:0200000401f009
:04001800f7000000ed
:020000040000fa
:0200000401f009
:04001c00dfff000002
:00000001FF
